:020000040800F2
:1000000000400020790100087D0100087F01000800
:1000100000000000000000000000000000000000E0
:10002000000000000000000000000000990100082E
:1000300000000000000000009B010008E50400082B
:10004000A9010008A9010008A9010008A9010008E8
:10005000A9010008A9010008A9010008A9010008D8
:10006000A9010008A9010008A9010008A9010008C8
:10007000A9010008A9010008A9010008A9010008B8
:10008000A9010008A9010008A9010008A9010008A8
:10009000A9010008A9010008A9010008A901000898
:1000A000A9010008A9010008A9010008A901000888
:1000B000A9010008A9010008A9010008A901000878
:1000C0005FF808F173B500F0DDF8204A204B2149B4
:1000D0008B4226D30021204B204A934224D3002573
:1000E00000F0D4F8684601A900F0C4F81C4E1D4C7D
:1000F000A41BA410AC4219DC00261B4D1B4C641B36
:10010000A410B44217DC0199009800F09DF9050095
:10011000174E184CA41BA410002C11DC280000F072
:10012000A5F801CA01C3D3E702C3D6E7AB00F35871
:1001300098470135DEE7B300EB5898470136E0E712
:10014000013CA300F3589847E6E7C04604060008C0
:10015000000000201C0000201C00002024000020C3
:10016000D4010008D4010008D4010008D40100081B
:10017000D4010008D401000809480047FEE7042024
:100180007146084202D0EFF3098001E0EFF30880E6
:100190007146044A1047FEE7FEE7FEE7704700009D
:0A01A000C500000897010008FEE703
:1001AC0004060008000000201C00002004060008C3
:1001BC0000000000000000001C00002024000020B3
:0801CC0000000000000000002B
:1001D400F7B503220023944601279F400A683A405A
:1001E40097422CD164465D00AC400A79E443561E24
:1001F4000192012E11D886682640866086683200F6
:100204004E79AE40164386608688BE4386808F79D9
:1002140086889F403E43B6B28680019A0668AA400B
:1002240034400460046822436446AC400260C268FF
:10023400A243C260CA79C468AA402243C26001339F
:10024400102BC9D1F7BD816170470185704700004B
:10025400044B5A69002902D0104358617047824305
:100264005A61FBE70010024010B500F011F80000DD
:1002740001230360014B0B607047C046000000205F
:1002840010B500F013F810BD10B500F08FF810BDD4
:10029400BFF34F8F034B044ADA60BFF34F8FC0465E
:1002A400FDE7C04600ED00E00400FA0513B50121A6
:1002B400364B37481A68A0240A431A605A68E40186
:1002C40002405A601A68334802401A601A68324879
:1002D40002401A605A68314802400F205A60DA6AB4
:1002E4008243DA621A6B2E4802401A635A6B8020EA
:1002F4008A435A6300229A6000920192802219680C
:10030400520280020A4301001A601A6802400192F4
:10031400009A01320092019A002A02D1009AA24264
:10032400F3D11A68100008400A422CD0012201922D
:10033400019A012A26D111211A4A11605A681A49D0
:100344005A605A685A605A680A405A608822596842
:1003540052030A435A608022196852040A431A60FD
:100364008022920419681142FCD003215A688A43FE
:100374005A60022259680A430C215A605A680A409A
:10038400082AFBD113BD0190D2E7C04600100240F9
:100394000CB8FF08FFFFF6FEFFFFFBFFFFFFC0FFE7
:1003A400ACFEFFFF00200240FF7FC0FF0C2270B5AF
:1003B400124D134E6B681340082B0AD0114B336057
:1003C4006B68114A1B061B0FD35C3268DA4032603B
:1003D40070BD0F23C0226C686968A40C1C405202D3
:1003E4000234114203D1094844433460E8E7E96A1E
:1003F40004481940013100F077F8F5E70010024095
:100404001800002000127A000800002000093D00B6
:1004140037B580208025094C01210003FFF718FF20
:10042400074B6D006946200000950193FFF7D0FE4D
:1004340029002000FFF709FF37BDC0460008004827
:100444000103000010B5802400F016F8FFF7E0FF68
:10045400640021000748FFF7F6FEC82000F02EF8DC
:1004640021000448FFF7F1FEC820800000F026F8C0
:10047400EFE7C04600080048FA210D4B10B5186894
:10048400890000F031F8802301385B0498420DD2D2
:10049400C021084A090650600748036A1B021B0A68
:1004A4000B430362002393600733136010BDC046FF
:1004B4001800002010E000E000ED00E0034A11689D
:1004C40013685B1A8342FBD37047C04620000020A8
:1004D400024A1368013313607047C04620000020AD
:1004E40010B5FFF7F5FF10BD002243088B4274D30B
:1004F40003098B425FD3030A8B4244D3030B8B4221
:1005040028D3030C8B420DD3FF22090212BA030C29
:100514008B4202D31212090265D0030B8B4219D30A
:1005240000E0090AC30B8B4201D3CB03C01A52412A
:10053400830B8B4201D38B03C01A5241430B8B4272
:1005440001D34B03C01A5241030B8B4201D30B035B
:10055400C01A5241C30A8B4201D3CB02C01A524182
:10056400830A8B4201D38B02C01A5241430A8B4245
:1005740001D34B02C01A5241030A8B4201D30B022E
:10058400C01A5241CDD2C3098B4201D3CB01C01A48
:10059400524183098B4201D38B01C01A5241430952
:1005A4008B4201D34B01C01A524103098B4201D340
:1005B4000B01C01A5241C3088B4201D3CB00C01AAD
:1005C400524183088B4201D38B00C01A5241430825
:1005D4008B4201D34B00C01A5241411A00D201464A
:1005E400524110467047FFE701B5002000F006F8BD
:1005F40002BDC0460029F7D076E770477047C04671
:100604001C000020000000000000000000000000AA
:0C0614000102030406070809006CDC0268
:04000005080000C52A
:00000001FF
