:020000040800F2
:1000000000400020790100087D0100087F01000800
:1000100000000000000000000000000000000000E0
:10002000000000000000000000000000990100082E
:1000300000000000000000009B01000849080008C3
:10004000A9010008A9010008A9010008A9010008E8
:10005000A9010008A9010008A9010008A9010008D8
:10006000A9010008A9010008A9010008A9010008C8
:10007000A9010008A9010008A9010008A9010008B8
:10008000A9010008A9010008A9010008A9010008A8
:10009000A9010008A9010008A9010008A901000898
:1000A000A9010008A9010008A9010008A901000888
:1000B000A9010008A9010008A9010008A901000878
:1000C0005FF808F173B500F017FA204A204B214978
:1000D0008B4226D30021204B204A934224D3002573
:1000E00000F00EFA684601A900F0FEF91C4E1D4C06
:1000F000A41BA410AC4219DC00261B4D1B4C641B36
:10010000A410B44217DC0199009800F023FB05000D
:10011000174E184CA41BA410002C11DC280000F072
:10012000E0F901CA01C3D3E702C3D6E7AB00F35835
:1001300098470135DEE7B300EB5898470136E0E712
:10014000013CA300F3589847E6E7C0466809000859
:10015000000000202C0000202C0000203400002093
:10016000D4010008D4010008D4010008D40100081B
:10017000D4010008D401000809480047FEE7042024
:100180007146084202D0EFF3098001E0EFF30880E6
:100190007146044A1047FEE7FEE7FEE7704700009D
:0A01A000C500000897010008FEE703
:1001AC0068090008000000202C00002068090008E5
:1001BC0000000000000000002C0000203400002093
:0801CC0000000000000000002B
:1001D400F7B503220023944601279F400A683A405A
:1001E40097422CD164465D00AC400A79E443561E24
:1001F4000192012E11D886682640866086683200F6
:100204004E79AE40164386608688BE4386808F79D9
:1002140086889F403E43B6B28680019A0668AA400B
:1002240034400460046822436446AC400260C268FF
:10023400A243C260CA79C468AA402243C26001339F
:10024400102BC9D1F7BD008A0840411E8841C0B2B5
:100254007047816170470185704700000C22F8B532
:10026400554D04006B681340082B05D0934253D0BE
:10027400524B002023600CE00F23C0226868696899
:10028400800C18405202861C11423ED14C487043E7
:10029400206021686B680A004A4E1B061B0FF35C42
:1002A400DA4062606B685B055B0FF35CDA40A26066
:1002B4002B6BDB0532D4444B4026E3602B6B33407D
:1002C4005E42734112265B423340802636029B19FC
:1002D40023612B6BDB0628D50B00636103232E6B94
:1002E4001E4224D1A261C0232E6B9B021E4232D136
:1002F400E261C0232E6B1B031E4244D122622B6B8E
:100304001B0600D431486062F8BDE96A2B481940E5
:10031400013100F09BFABAE72C4BAAE76B685B0447
:1003240001D45308C8E79308C6E7244BD5E72E6BDE
:100334001E40012E01D1A161D5E72E6B1E40022E75
:1003440003D180231B02A361CDE72E6B3340032B23
:10035400C9D11A4BF7E780272E6B7F021E40BE429D
:1003640001D1E161C5E780272E6BBF021E40BE426A
:1003740003D180231B02E361BBE72E6B1E409E4228
:10038400B7D10E4BF7E780262A6BF6021A40B24229
:1003940001D12162B3E780212A6B09031A408A4202
:1003A40003D180231B022362A9E72A6B1A409A42D5
:1003B400A5D1024BF7E7C0460010024000127A00B4
:1003C40000093D0000000020809FD500006CDC0285
:1003D400044B5A69002902D0104358617047824384
:1003E4005A61FBE700100240044BDA69002902D08D
:1003F4001043D86170478243DA61FBE70010024082
:10040400012230B50D0003688BB093430360436849
:100414001F4A040013408A681343436003681D4A5B
:100424001A404B68C9680B4329690B4313430360A3
:100434008368194A13406A69134383606846FFF767
:100444000DFF164B06989C4208D0154B07989C420A
:1004540004D0144B08989C4200D0029823682D685D
:100464001B0400D54000290000F076FA00236D0833
:10047400A9425B41C01823681B0404D50A4A030738
:100484005B0F1040184380B2A0810BB030BDC04652
:10049400FFCFFFFFF3E9FFFFFFFCFFFF0038014040
:1004A4000044004000480040F0FF000096239B01F8
:1004B4000C220360002343608360C36002614361D4
:1004C400704701230268002902D013430360704778
:1004D4009A430260FBE7C905C90D0185704710B551
:1004E40000F010F801230360014B0B607047C04615
:1004F4001000002010B500F013F810BD10B500F086
:100504008FF810BDBFF34F8F034B044ADA60BFF37B
:100514004F8FC046FDE7C04600ED00E00400FA0539
:1005240013B50121364B37481A68A0240A431A60D0
:100534005A68E40102405A601A68334802401A605B
:100544001A68324802401A605A68314802400F2043
:100554005A60DA6A8243DA621A6B2E4802401A63DE
:100564005A6B80208A435A6300229A600092019257
:1005740080221968520280020A4301001A601A6834
:1005840002400192009A01320092019A002A02D19B
:10059400009AA242F3D11A68100008400A422CD0F3
:1005A40001220192019A012A26D111211A4A1160CD
:1005B4005A681A495A605A685A605A680A405A6016
:1005C4008822596852030A435A60802219685204E7
:1005D4000A431A608022920419681142FCD0032154
:1005E4005A688A435A60022259680A430C215A60A5
:1005F4005A680A40082AFBD113BD0190D2E7C046CD
:10060400001002400CB8FF08FFFFF6FEFFFFFBFFDF
:10061400FFFFC0FFACFEFFFF00200240FF7FC0FFD2
:100624000C2270B5124D134E6B681340082B0AD080
:10063400114B33606B68114A1B061B0FD35C326885
:10064400DA40326070BD0F23C0226C686968A40C64
:100654001C4052020234114203D10948444334601D
:10066400E8E7E96A04481940013100F0EFF8F5E7DA
:10067400001002402800002000127A001800002018
:1006840000093D0037B58020F025094C0121000305
:10069400FFF79EFE074BAD006946200000950193CD
:1006A400FFF796FD29002000FFF7D5FD37BDC046B2
:1006B400000800480103000007B5802001218002E2
:1006C400FFF786FE012390200093034B6946C00583
:1006D4000193FFF77DFD07BD0003000230B58024C0
:1006E400A40289B020000121FFF77EFE2000012131
:1006F400FFF76EFE042390246A4600250093124BF4
:10070400E4059380694620009571FFF761FD082395
:1007140000936B4669461D7120000135DD71FFF7BA
:1007240057FD02A8FFF7C2FEE1235B0202930C23EC
:10073400064C02A920000693FFF762FE2900200060
:10074400FFF7BFFE09B030BD0203000000440040C3
:1007540070B500F043F8FFF795FFFFF7ADFFFFF723
:10076400BDFF41211B48FFF7B6FE68211948FFF77A
:10077400B2FE6F211748FFF7AEFE6A211548FFF756
:10078400AAFE21211348FFF7A6FEC8250A21114815
:10079400FFF7A1FE4024AD0021000F48FFF759FDEB
:1007A400C82000F03DF821000B48FFF754FD280055
:1007B40000F036F890200121C005FFF744FD8021A8
:1007C400002803D00448FFF744FDE5E70248FFF79B
:1007D40042FDE1E70044004000080048FA210D4BC7
:1007E40010B51868890000F031F8802301385B04E3
:1007F40098420DD2C021084A090650600748036A8E
:100804001B021B0A0B43036200239360073313602C
:1008140010BDC0462800002010E000E000ED00E01C
:10082400034A116813685B1A8342FBD37047C046BE
:1008340030000020024A1368013313607047C04639
:100844003000002010B5FFF7F5FF10BD002243086B
:100854008B4274D303098B425FD3030A8B4244D384
:10086400030B8B4228D3030C8B420DD3FF220902C6
:1008740012BA030C8B4202D31212090265D0030B85
:100884008B4219D300E0090AC30B8B4201D3CB037B
:10089400C01A5241830B8B4201D38B03C01A5241BD
:1008A400430B8B4201D34B03C01A5241030B8B42BF
:1008B40001D30B03C01A5241C30A8B4201D3CB02AA
:1008C400C01A5241830A8B4201D38B02C01A52418F
:1008D400430A8B4201D34B02C01A5241030A8B4292
:1008E40001D30B02C01A5241CDD2C3098B4201D3AA
:1008F400CB01C01A524183098B4201D38B01C01A28
:10090400524143098B4201D34B01C01A524103099E
:100914008B4201D30B01C01A5241C3088B4201D34D
:10092400CB00C01A524183088B4201D38B00C01AFA
:10093400524143088B4201D34B00C01A5241411A21
:1009440000D20146524110467047FFE701B500202E
:1009540000F006F802BDC0460029F7D076E77047DC
:040964007047C046D2
:10096800000000000102030401020304060708094D
:100978002C00002000000000000000000000000023
:0C0988000102030406070809006CDC02F1
:04000005080000C52A
:00000001FF
